:1000000025C049C00FC595C4B9C245C044C043C04E
:100010004CC541C040C079C73EC03DC03CC03BC09C
:100020003AC039C038C037C036C035C034C033C01C
:1000300032C031C030C02FC02EC02EC70102048094
:100040004020100804020108B6056F0711241FBEE6
:10005000CFEFD2E0DEBFCDBF11E0A0E0B1E0EEEC2B
:10006000F6E102C005900D92A031B107D9F721E069
:10007000A0E1B1E001C01D92A138B207E1F710E0A4
:10008000C6E2D0E003C02197FE0103DBC432D107F2
:10009000D1F7C7D81ACBB4CF1F93CF93DF93EC011E
:1000A000162FFDDA181731F0612FCE01DF91CF91B5
:1000B0001F91FDCADF91CF911F910895662379F0BA
:1000C0008091420190914301FC0142A153A120A1E2
:1000D00031A14217530719F0C0D58093200181E068
:1000E0000895CF93DF9384E280932101109222013F
:1000F00010922301109224011092250110922601E2
:1001000010922701109228011092290189E680930C
:100110002A0110922B0188E080932C018FEF8093AD
:100120002D0194E690932E0192E390932F018093FA
:1001300030011092310184E18093320180933301C8
:100140001092340167E590E080E0A6DF69E681E087
:1001500090E0A2DF64E782E090E09EDF64E783E066
:1001600090E09ADF69E784E090E096DF60E585E063
:1001700090E092DF69E686E090E08EDF63E387E05F
:1001800090E08ADF60E088E090E086DFC9E0D0E0C0
:10019000CE0185DAFE01EF5DFE4F8F3F51F46081A5
:1001A000CE017ADF2196C431D10591F7DF91CF914D
:1001B00008958083F7CFF89481B5806481BD8091E4
:1001C0002C0198E08A3010F490912C0121B5892FF0
:1001D000880F880F8072977F892B822B81BD78943E
:1001E00008957898089510921E0160E083E09DD7ED
:1001F00061E081E09AD762E081E047C70F931F93E7
:10020000CF93DF938C01D0E0C0E0C017D1072CF46E
:1002100061E082E08AD72196F8CFDF91CF911F91DC
:100220000F91089560E082E080C7CF92DF92EF9255
:10023000FF920F931F93CF93DF9381E411D78C012B
:1002400082E40ED7EC01B801110F880B990BF1D89D
:1002500020E93BE04BE75DE3A0D96B017C01BE01E7
:10026000DD0F880B990BE5D820E93BE04BE75DE318
:1002700094D99B01AC01C1E0C701B6018AD9181617
:100280000CF0C0E0C0932801DF91CF911F910F9136
:10029000FF90EF90DF90CF90089581E080931E0152
:1002A00061E083E042D7C1CFCF92DF92EF92FF921D
:1002B0006B017C018BD8072E000C880B990BB9D8E9
:1002C0009B01AC01C701B601B0D720E030E048EC9B
:1002D00052E463D97BD8CB01FF90EF90DF90CF90B1
:1002E00008958F929F92AF92BF92CF92DF92EF923A
:1002F000FF9281E4B5D6BC01990F880B990B99D870
:1003000020E93BE04BE75DE348D94B015C0160919C
:10031000320170E090E080E08AD86B017C0120E03F
:1003200030E04EEF52E435D918164CF4A70196018F
:1003300060E070E080E093E478D76B017C0120E01E
:1003400030E048EC52E4C701B601D8D7A5019401CA
:100350006DD76B017C013AD860932201C701B601C9
:10036000A3DF80932301C701B601FF90EF90DF90D8
:10037000CF90BF90AF909F908F9008954F925F92D3
:100380006F927F928F929F92AF92BF92CF92DF92A5
:10039000EF92FF9282E464D6BC01990F880B990B0F
:1003A00048D820E93BE04BE75DE3F7D84B015C011F
:1003B00083E456D6BC01990F880B990B3AD829E0F3
:1003C00030EF4CE85AE3E9D82B013C01609133014E
:1003D00070E090E080E02BD86B017C0120E030E001
:1003E0004EEF52E4D6D818164CF4A701960160E0FF
:1003F00070E080E093E419D76B017C01A3019201C6
:10040000C501B40112D74B015C0120E030E048EC9B
:1004100052E4C701B60172D7A501940107D76B0159
:100420007C01D4D760932401C701B6013DDF8093DE
:100430002501C701B601FF90EF90DF90CF90BF90EC
:10044000AF909F908F907F906F905F904F900895A6
:100450004F925F926F927F928F929F92AF92BF92D4
:10046000CF92DF92EF92FF9283E4FAD5BC01990F0D
:10047000880B990BDED729E030EF4CE85AE38DD892
:100480004B015C016091340170E090E080E0CFD7D7
:100490006B017C0120E030E04EEF52E47AD8181670
:1004A0004CF4A701960160E070E080E093E4BDD6D3
:1004B0006B017C012DEC3CEC4CE45DE3C501B40127
:1004C0001DD72B013C0120E030E048EC52E4C7018D
:1004D000B60114D79B01AC01C301B201A7D66B01D1
:1004E0007C0174D760932601C701B601DDDE8093DD
:1004F0002701C501B401FF90EF90DF90CF90BF902E
:10050000AF909F908F907F906F905F904F900895E5
:10051000882339F080912F0190E09093110180930E
:100520001001809110019091110184359105A0F482
:1005300080911001909111012091100130911101D1
:10054000281B390B30931101209310016DE073E0EB
:100550008FD880959095089583E590E0EDCF1FBCEE
:100560001EBC8EB584608EBD8EB581608EBD709AC6
:1005700081E0CEDF9DBD8CBD789A08951F920F92C9
:100580000FB60F9211240F900FBE0F901F90189569
:10059000FC01EF5DFE4F6083893091050CF07CCD4E
:1005A00008958091420190914301FC0142A153A121
:1005B00020A131A142175307B9F04FD380932001F6
:1005C0008091420190914301FC0142A153A120A1DD
:1005D00031A14217530741F040D390912001682F79
:1005E000892F990F990BD4CF089561E081E04DD503
:1005F00060E081E09AC5CF92DF92EF92FF92CFD474
:10060000C0901201D0901301E0901401F0901501F8
:100610006C157D058E059F05C0F0C0901201D0902D
:100620001301E0901401F09015019B01AC012C190D
:100630003D094E095F0969017A0130E4C31632E4CD
:10064000D3063FE0E306F104A8F160931201709332
:100650001301809314019093150180911E0188234A
:1006600049F180911D01882329F18091290181118F
:1006700021C080912D018F3FE9F033DE6B017C01B9
:1006800060912D0170E090E080E0D1D620E030E074
:1006900040E251E433D69B01AC01C701B6012AD632
:1006A00087FF08C081E080932901FF90EF90DF90E1
:1006B000CF909BCFFF90EF90DF90CF900895CF9297
:1006C000DF92EF92FF92CF9385E08BD5892BD9F5FE
:1006D00080911E0181114AC080912801882309F46C
:1006E00045C0C5B12F9AFDDD6B017C01C5B9609194
:1006F0002D0170E090E080E09AD620E030E040E20A
:1007000051E4FCD59B01AC0180912901813009F5B0
:10071000C701B6013ED71816B4F46091300170E0FD
:1007200090E080E084D620E030E040E251E4E6D57D
:100730009B01AC01809130018F3FC1F0C701B60130
:1007400028D718169CF0CF91FF90EF90DF90CF90B4
:100750000895C701B6011DD7181644F080913001E5
:100760008F3F21F081E080932901EDCFCF91FF9061
:10077000EF90DF90CF9039CFCF92DF92EF92FF9240
:10078000CF93DF932EDD2F9885B7877E806185BF5D
:1007900012DD85B7806285BF789481E080931A016D
:1007A000889580911A01882309F447C088DF8091D9
:1007B0002E01882341F080912E0190E064E670E0E4
:1007C00057D71CDD2FDD80913101882391F0809176
:1007D000310190E06AE070E04BD77C01D0E0C0E0EE
:1007E000CE15DF0529F061E083E09FD42196F8CF94
:1007F000FADC80912901813021F080912D018F3F19
:10080000E1F4809130018F3FC1F02F9A6ADD6B01D6
:100810007C012F986091300170E090E080E007D675
:1008200020E030E040E251E469D59B01AC01C70112
:10083000B601AFD687FF10921A0180911A0181117B
:10084000AFCFF89485B78F7D85BF11BC2F9A87DE17
:10085000789462E084E019D462E086E016D41092C5
:100860001D0110921C0181E080931F0116DD81E0C3
:100870004FDE9DBD8CBDDF91CF91FF90EF90DF905B
:10088000CF90089560E080E000D462E081E0FDD385
:1008900061E082E0FAD361E083E0F7D362E085E0D3
:1008A000F4D360E08AE0F1D360E081E4EED360E06D
:1008B00082E4EBD360E083E4E8D362E084E0E5D354
:1008C00062E086E0E2D38FDC81E0C7D30ADC80916E
:1008D0002A01883050F180912A01883730F56091E3
:1008E0002A0140E08091420190914301AAD1E09118
:1008F0004201F09143018EE590E094A783A781ED3A
:1009000092E096A785A788E995E090AB87A7F89431
:1009100080E38BBF83E080BD81E282BB20DE7894E0
:1009200080912B01813021F4B8CC69E670E0D9CFF9
:1009300023CF1F920F920FB60F921124CF92DF9206
:10094000EF92FF922F933F934F935F936F937F9319
:100950008F939F93AF93BF93EF93FF93C090160134
:10096000D0901701E0901801F090190118D360930E
:1009700016017093170180931801909319018091CB
:10098000160190911701A0911801B09119018C19CD
:100990009D09AE09BF090A97A105B10538F08091FC
:1009A0001B018823C1F010921B01E6DEFF91EF913D
:1009B000BF91AF919F918F917F916F915F914F9177
:1009C0003F912F91FF90EF90DF90CF900F900FBE4F
:1009D0000F901F90189581E004D4892B01F581E0D8
:1009E00090E00CDC10921A0180911F01811104C06B
:1009F00081E080931F0151DC81E08ADD9DBD8CBDCB
:100A000080E0EFD3019791F680911D01811102C022
:100A10001092290181E080931D0104DCC7CF109260
:100A20001F01EECF1F920F920FB60F9211242F933A
:100A30003F934F935F936F937F938F939F93AF9366
:100A4000BF93EF93FF9380911D01882371F08AE09B
:100A5000C8D3892B51F410921D0181E080931C01B1
:100A6000E1DB81E055DD9DBD8CBD29DEFF91EF917D
:100A7000BF91AF919F918F917F916F915F914F91B6
:100A80003F912F910F900FBE0F901F90189580915E
:100A90001F01882349F081E0A4D3892B29F481E048
:100AA00080931B01A0DBBECB08951F920F920FB65F
:100AB0000F9211242F933F934F935F936F937F93E4
:100AC0008F939F93AF93BF93EF93FF938091100108
:100AD00090911101892B31F581E01ADD9DBD8CBD0E
:100AE000D6DF80911C01882349F08AE07AD30197F0
:100AF000B1F410921C0181E090E080DBFF91EF9156
:100B0000BF91AF919F918F917F916F915F914F9125
:100B10003F912F910F900FBE0F901F90189563DBA0
:100B20002BDEECCF80E0F4DC9DBD8CBDB0DFE6CFEA
:100B3000809120018330B1F06CF4813089F0E09134
:100B400020010E2E000CFF0BEF5DFE4F608186E34F
:100B500091E01BC0853041F0873089F766DBEFCF2D
:100B6000C0DBEDCF0BDCEBCF73DCE9CF10923501AE
:100B70000895DC011C96ED91FC9182A193A120A126
:100B800031A1821B930B08950895DC011C96ED9111
:100B9000FC9186A197A1809768F486A197A19C01FA
:100BA0002F5F3F4F37A326A3E80FF91F608381E033
:100BB00090E0089590E080E00895CF93DF93DC010A
:100BC0001C96ED91FC9126A137A12032310510F53C
:100BD000A6A1B7A1C6A1D7A120E230E02A1B3B0BFA
:100BE0004217530708F49A01DB01EC0FFD1FB9010E
:100BF0006E0F7F1FE617F70719F04D914193FACF5B
:100C0000DC011C96ED91FC9186A197A1280F391F5C
:100C100037A326A3DF91CF910895FC01138212829E
:100C200088EE93E0A0E0B0E084839583A683B78349
:100C300084E091E09183808384E491E095878487C8
:100C40000895660F6093A2004093A1002FEFFC016E
:100C500020A78CEB8093A5000895FC0120A131A171
:100C600082A193A12817390760F480A191A19C016A
:100C70002F5F3F4F31A320A3E80FF91F808190E041
:100C800008958FEF9FEF0895FC0184859585E5CF4A
:100C9000FC0120A131A182A193A12817390738F4C2
:100CA00080A191A1E80FF91F808190E008958FEF56
:100CB0009FEF0895FC0184859585EACFCF93C0917D
:100CC000A3008C2F8C7099F08FEF80936C01809132
:100CD0006D0190916E019F7790936E0180936D01ED
:100CE0008091A300846C8093A300CF910895C6FDEA
:100CF00028C080916D0190916E0197FD22C0C7FFC1
:100D00006FC0C1FFAFC0209168013091690180912F
:100D10006A0190916B012817390708F0A1C08091F2
:100D20006801909169019C012F5F3F4F30936901E9
:100D3000209368018C5B9E4FFC0180818093A00012
:100D40004FC0C0FF66C080916D0190916E0197FF0A
:100D500029C080916D0190916E012091A00096951F
:100D6000982F88279795879588279370822B909343
:100D70006E0180936D01E0916F01F09170013097E9
:100D800089F1109265011092640160916C0180916B
:100D90006D0190916E010995811124C087E08093C7
:100DA000A400A3CF8091A00090E090936E01809367
:100DB0006D0180916C018F5F80936C0180916D015A
:100DC00090916E01897F9927803F9105A1F68091CE
:100DD0006D0190916E01906890936E0180936D010A
:100DE00083E0DDCFC1FF10C010926B0110926A0149
:100DF000E0917301F0917401309709F00995109218
:100E0000690110926801ECCF10926701109266019F
:100E1000E7CFC1FF15C0E0917501F09176013097E1
:100E200009F009958FEF80936C0180916D0190918D
:100E30006E019F7790936E0180936D0180E453CF94
:100E4000E0917101F0917201309761F310926501A8
:100E50001092640180916601909167010995E2CF3B
:100E600082E09DCF8091660190916701809790F418
:100E700080916601909167019C012F5F3F4F3093F5
:100E80006701209366012091A0008C5B9E4FFC01BE
:100E90002083A6CF86E083CF1F920F920FB60F92CA
:100EA00011242F933F934F935F936F937F938F936F
:100EB0009F93AF93BF93EF93FF9300DFFF91EF9169
:100EC000BF91AF919F918F917F916F915F914F9162
:100ED0003F912F910F900FBE0F901F90189586E3B2
:100EE00091E09BCEE9ECF0E08081887F8083AAECE2
:100EF000B0E08C918C7F81608C938081877E808331
:100F00008081887F8360808308951F920F920FB63F
:100F10000F9211242F933F938F939F93AF93BF937F
:100F20008091780190917901A0917A01B0917B0133
:100F30003091770126E0230F2D3768F129E8230F40
:100F40000396A11DB11D20937701809378019093A2
:100F50007901A0937A01B0937B0180917C019091FB
:100F60007D01A0917E01B0917F010196A11DB11D6F
:100F700080937C0190937D01A0937E01B0937F01CB
:100F8000BF91AF919F918F913F912F910F900FBE85
:100F90000F901F9018950296A11DB11DD4CF3FB799
:100FA000F89480917C0190917D01A0917E01B09197
:100FB0007F0122B708B600FE05C02F3F19F0019649
:100FC000A11DB11D3FBFBA2FA92F982F8827BC01A3
:100FD000CD01620F711D811D911D43E0660F771FCA
:100FE000881F991F4A95D1F7089581E2E1E0F0E06A
:100FF0008093570084910895F8DF815080937400A6
:101000000000789480B7836080BF83B7877F83BFF9
:1010100083B7887F836083BF89B7816089BF62DFC0
:101020008EB5887F8EBD8FB58C7F81608FBD8EB56C
:10103000877E8EBD8EB5887F83608EBD80E1809374
:10104000670084EA809368008CEF8093660085B126
:10105000887F866085B92F9A0895809380010895CE
:1010600086FD8F7328B1909180019295990F907EA3
:101070002F71922B98B999B1907C892B89B92E9AAE
:101080002E99FECF86B197B10895CF93DF9386FF57
:1010900009C0982F9F738AE0993018F08BE099303F
:1010A00009F0891BE82FF0E0E45CFF4FE4918B30FE
:1010B000E1F08330D0F08BE390E0AAE3B0E0C3E648
:1010C000D0E02E2F2095611117C04FB7F8943C91B6
:1010D00032233C93DC013C9132233C9388812823CA
:1010E00028834FBFDF91CF91089588E390E0A7E375
:1010F000B0E0C2E6D0E0E5CF623069F44FB7F894D3
:101100003C9123232C93DC012C912E2B2C93888152
:10111000E82BE883E6CF9FB7F894888128232883BB
:101120008C91E82BEC939FBFDDCFCF93DF9386FFAD
:1011300009C0982F9F738AE0993018F08BE099309E
:1011400009F0891BE82FF0E0E45CFF4FE4918B305D
:10115000A1F0833050F0863021F580B78F7380BFC7
:10116000CBE3D0E0A3E6B0E00CC092E08530D9F448
:1011700080B78F7C80BF913099F3C8E3D0E0A2E6BE
:10118000B0E09E2F90952FB7611126C0F89488810A
:10119000892388838C9189238C932FBFDF91CF91F2
:1011A000089591E0E3CF843021F48FB58F738FBD24
:1011B000E2CF873019F48FB58F7CF9CF823031F4CC
:1011C0008091CA008F738093CA00D5CF833099F67F
:1011D0008091CA008F7CF7CFF8948881E82BE88350
:1011E000D9CF87FF09C0982F9F778AE0993018F0F0
:1011F0008BE0993009F0891BE82FF0E0E45CFF4FA9
:10120000E4918B3021F0A9E3B0E0833010F4A6E341
:10121000B0E08C91E82381E090E011F490E080E070
:101220000895EADE2FDBE7D9FECF5058BB27AA2767
:101230000ED075C166D130F06BD120F031F49F3FF4
:1012400011F41EF45BC10EF4E095E7FB51C1E92FE8
:1012500077D180F3BA17620773078407950718F0F0
:1012600071F49EF58FC10EF4E0950B2EBA2FA02DD0
:101270000B01B90190010C01CA01A0011124FF2743
:10128000591B99F0593F50F4503E68F11A16F0403E
:10129000A22F232F342F4427585FF3CF469537953D
:1012A0002795A795F0405395C9F77EF41F16BA0B02
:1012B000620B730B840BBAF09150A1F0FF0FBB1FB0
:1012C000661F771F881FC2F70EC0BA0F621F731FF9
:1012D000841F48F4879577956795B795F7959E3F56
:1012E00008F0B3CF9395880F08F09927EE0F9795E4
:1012F00087950895D9D008F481E008950CD00FC1E6
:1013000007D140F0FED030F021F45F3F19F0F0C07B
:10131000511139C1F3C014D198F39923C9F355235E
:10132000B1F3951B550BBB27AA27621773078407D8
:1013300038F09F5F5F4F220F331F441FAA1FA9F38E
:1013400033D00E2E3AF0E0E830D091505040E69580
:10135000001CCAF729D0FE2F27D0660F771F881FE1
:10136000BB1F261737074807AB07B0E809F0BB0BD0
:10137000802DBF01FF2793585F4F2AF09E3F5105F4
:1013800068F0B6C000C15F3FECF3983EDCF3869591
:1013900077956795B795F7959F5FC9F7880F911D6A
:1013A0009695879597F90895E1E0660F771F881F56
:1013B000BB1F621773078407BA0720F0621B730B09
:1013C000840BBA0BEE1F88F7E095089504D068945B
:1013D000B111D9C00895BCD088F09F5790F0B92FB3
:1013E0009927B751A0F0D1F0660F771F881F991F7A
:1013F0001AF0BA95C9F712C0B13081F0C3D0B1E08C
:101400000895C0C0672F782F8827B85F39F0B93F9B
:10141000CCF3869577956795B395D9F73EF490957B
:101420008095709561957F4F8F4F9F4F0895E894F9
:1014300009C097FB3EF490958095709561957F4F1C
:101440008F4F9F4F9923A9F0F92F96E9BB279395CA
:10145000F695879577956795B795F111F8CFFAF4DA
:10146000BB0F11F460FF1BC06F5F7F4F8F4F9F4F0B
:1014700016C0882311F096E911C0772321F09EE869
:10148000872F762F05C0662371F096E8862F70E0CF
:1014900060E02AF09A95660F771F881FDAF7880FA9
:1014A0009695879597F90895990F0008550FAA0BFF
:1014B000E0E8FEEF16161706E807F907C0F0121667
:1014C0001306E407F50798F0621B730B840B950B6A
:1014D00039F40A2661F0232B242B252B21F40895BF
:1014E0000A2609F4A140A6958FEF811D811D08955C
:1014F00097F99F6780E870E060E008959FEF80ECC7
:10150000089500240A941616170618060906089569
:1015100000240A9412161306140605060895092ECF
:101520000394000C11F4882352F0BB0F40F4BF2B3E
:1015300011F460FF04C06F5F7F4F8F4F9F4F08957E
:1015400057FD9058440F551F59F05F3F71F0479574
:10155000880F97FB991F61F09F3F79F08795089559
:10156000121613061406551FF2CF4695F1DF08C078
:10157000161617061806991FF1CF86957105610595
:1015800008940895E894BB2766277727CB0197F93D
:1015900008958ADF08F48FEF08950AD0C0CFB1DF35
:1015A00028F0B6DF18F0952309F0A2CFA7CFEBCF34
:1015B000C7DFA8F39923D9F35523C9F3950F50E05A
:1015C000551FAA27EE27FF27BB27002408946795FD
:1015D00020F4E20FF31FB41F0A1E220F331F441F13
:1015E000AA1F6695A9F7779530F4F30FB41F0A1E6A
:1015F000121E08F46395330F441FAA1F221F76950D
:1016000099F7879520F4B40F0A1E121E631F440F2A
:10161000AA1F221F331F8695A9F7862F712D602DD3
:1016200011249F5750408AF0E1F088234AF0EE0FD2
:10163000FF1FBB1F661F771F881F91505040A9F7DF
:101640009E3F510570F054CF9ECF5F3FECF3983E24
:10165000DCF3869577956795B795F795E7959F5F46
:10166000C1F7FE2B880F911D9695879597F90895E0
:101670000024552704C0080E591F880F991F009792
:1016800029F076956795B8F37105B9F7802D952FF8
:101690000895EE0FFF1F0590F491E02D0994E19954
:1016A000FECF9FBB8EBBE09A99278DB30895262F5E
:1016B000E199FECF1CBA9FBB8EBB2DBB0FB6F89431
:0E16C000E29AE19A0FBE01960895F894FFCFCA
:1016CE0000000000C505DD05B90544065A06C4052F
:00000001FF
